:100000000C942A000C9447000C9447000C94470071
:100010000C9447000C9447000C9447000C94470044
:100020000C9447000C9447000C9447000C94470034
:100030000C9447000C9447000C9447000C94470024
:100040000C9447000C9447000C9447000C94470014
:100050000C94470011241FBECFE5D8E0DEBFCDBF12
:1000600010E0A0E6B0E0E0EAF4E002C005900D92F6
:10007000AC37B107D9F710E0ACE7B0E001C01D9292
:10008000A938B107E1F70E9495000C944E020C9438
:10009000000010BC87E689B988E18AB986E880BD8E
:1000A00008955F9BFECF8CB190E008955D9BFECFDD
:1000B0008CB90895CF93DF93EC0102C00E945600E3
:1000C00089918823D9F7DF91CF9108951ABA87E8EB
:1000D00086B980E487B908958770806487B9369AB5
:1000E000349BFECF349A8FE99FE00197F1F700C06F
:1000F000000084B195B108955D9BFECF8CB980E07E
:1001000090E008958AB188698AB980B5866080BD1B
:1001100010BC87E689B98CE790E060E070E00E944F
:10012000B0008FB780688FBF08950E9449000E9479
:1001300066008FEF8ABBCFEF80E090E00E946C00FA
:10014000C0937E0080917E000E9456008FEF93ED59
:10015000A0E381509040A040E1F700C00000ECCF48
:100160000F931F93CF93DF938C01EB01009711F452
:100170002097C1F181E090E06EE070E00E94FA000B
:10018000FC01009789F180E88383209771F0D38781
:10019000C28781E8838380917F00909180000097DF
:1001A00021F4F0938000E0937F0001151105E1F048
:1001B0001187008783818260838380918100909181
:1001C0008200009789F4F0938200E093810080918F
:1001D000830090918400009739F4F0938400E093B9
:1001E000830002C0E0E0F0E0CF01DF91CF911F91EA
:1001F0000F9108950F931F93CF93DF93689F800112
:10020000699F100D789F100D1124C8010E941801DC
:10021000C82FD92F209731F08C2F60E070E0A80113
:100220000E944702CE01DF91CF911F910F91089557
:10023000CF93DF93AC018230910510F442E050E09F
:10024000E0918700F091880020E030E0A0E0B0E08D
:1002500024C08081918184179507D0F08417950779
:1002600071F482819381109729F013969C938E9359
:1002700012972CC0909388008093870027C0211587
:10028000310519F08217930718F49C01BD01EF01A5
:1002900092818381DF01E92FF82F3097D1F6211564
:1002A0003105F9F0C901841B950B8430910580F468
:1002B0008A819B816115710521F0FB019383828303
:1002C00004C09093880080938700FE01329642C05C
:1002D000FE01E80FF91F4193519302979983888398
:1002E00039C08091850090918600009741F48091FB
:1002F00077009091780090938600809385002091FC
:100300007500309176002115310541F42DB73EB7C7
:100310008091790090917A00281B390BE09185003B
:10032000F0918600E217F30798F42E1B3F0B241779
:10033000350770F0CA0102962817390748F08E0F6A
:100340009F1F90938600809385004193519302C034
:10035000E0E0F0E0CF01DF91CF9108950F931F937C
:10036000CF93DF939C01009709F48CC0DC011297B6
:1003700013961C921E9212976091870070918800CC
:100380006115710589F48D919C911197820F931FCE
:1003900020918500309186002817390769F5B093C0
:1003A0008600A09385006EC0FB0140E050E001C0D4
:1003B000FC01EA17FB0730F482819381AF010097BB
:1003C000B9F71FC0E9012297FB83EA8308811981ED
:1003D000C901800F911F8E179F0759F48081918169
:1003E000800F911F029699838883828193819B83DA
:1003F0008A834115510529F4B0938800A0938700A2
:1004000041C0FA01B383A283C191D191EC0FFD1FCA
:10041000AE17BF0781F4F901929182918C0F9D1F55
:100420000296DA0111969C938E93828193811396A2
:100430009C938E931297E0E0F0E002C0FB01BC01B8
:10044000DB0112968D919C9113970097B9F7CB0120
:1004500002962D913C911197820F931F2091850058
:10046000309186002817390769F4309729F41092E3
:1004700088001092870002C0138212827093860057
:1004800060938500DF91CF911F910F910895DC015A
:1004900001C06D9341505040E0F70895F894FFCFAC
:1004A00057656C636F6D6520746F20484349204C1D
:0C04B00061620A0A0000008900200000C0
:00000001FF
